:020000040800F2
:10000000A821002079010008692B00085902000886
:1000100000000000000000000000000000000000E0
:100020000000000000000000000000008501000842
:100030000000000000000000D70100088936000819
:100040008B010008000000008B0100088B010008F4
:100050008B0100088B0100088B0100088B01000850
:10006000000000008B0100088B0100088B010008D4
:100070008B0100088B0100088B01000800000000C4
:10008000E53700088B0100088B0100088B01000890
:100090008B0100088B0100088B0100088B01000810
:1000A0008B0100088B0100088B01000881380008D3
:1000B000913900088B01000800F002F800F030F8D8
:1000C0000CA030C8083824182D18A246671EAB466D
:1000D00054465D46AC4201D100F022F87E460F3E08
:1000E0000FCCB6460126334200D0FB1AA246AB46DF
:1000F000334318475468000074680000002300244C
:1001000000250026103A01D378C1FBD8520700D34E
:1001100030C100D50B6070471FB51FBD10B510BDB5
:1001200001F04AF81146FFF7F7FF01F0CEF801F0B1
:1001300062F803B4FFF7F2FF03BC01F095F800008A
:1001400070B505460C46164602E00FCC0FC5103EB2
:10015000102EFAD2082E02D303CC03C5083E042E7B
:1001600007D301CC01C5361F03E021782970641C38
:100170006D1C761EF9D270BD0748804707480047BE
:10018000FEE7FEE7FEE7FEE7FEE7FEE70448054977
:10019000034A054B70470000E1370008B90000082A
:1001A000A81F0020A8210020A81F0020EFF3108026
:1001B00072B6704780F3108870472A4A1368012B83
:1001C00003D001231360284A1060284A1160284890
:1001D000284901607047EFF3108272B62148016828
:1001E00000291DD0002101601F48016800290AD0A4
:1001F000EFF30981203900680160F0C144464D46A3
:1002000056465F46F0C1194909680968F0C9F0B45B
:10021000F0C9A046A946B246BB46F0BC81F30988A6
:1002200082F31088042040420047104908600E49BC
:10023000002008600B49012008600F480F49026840
:10024000114301600A480B4901600D4800680068CD
:1002500080F3088862B67047EFF3098000B504F0B8
:100260002FFF00BD880000208000002084000020B7
:1002700004ED00E00000001020ED00E00000FFFFB2
:1002800008ED00E030B5441C03E00178401C002973
:100290000DD08107F9D10B4BDD0104C8D11A914370
:1002A0002940FAD0001B0A0603D0C01E30BD001B37
:1002B00030BD0A0401D0801E30BD0902FCD0401EB2
:1002C00030BD00000101010101E004C0091F042943
:1002D000FBD28B0701D50280801CC90700D00270B9
:1002E000704700290BD0C30702D00270401C491E82
:1002F000022904D3830702D50280801C891EE3E70C
:100300000022EEE70022DFE7002203098B422CD314
:10031000030A8B4211D300239C464EE003460B4355
:100320003CD4002243088B4231D303098B421CD3B7
:10033000030A8B4201D394463FE0C3098B4201D3A9
:10034000CB01C01A524183098B4201D38B01C01AE1
:10035000524143098B4201D34B01C01A5241030958
:100360008B4201D30B01C01A5241C3088B4201D307
:10037000CB00C01A524183088B4201D38B00C01AB4
:10038000524143088B4201D34B00C01A5241411ADB
:1003900000D201465241104670475DE0CA0F00D0BE
:1003A0004942031000D34042534000229C460309B7
:1003B0008B422DD3030A8B4212D3FC22890112BA3D
:1003C000030A8B420CD3890192118B4208D3890115
:1003D00092118B4204D389013AD0921100E089092D
:1003E000C3098B4201D3CB01C01A524183098B420E
:1003F00001D38B01C01A524143098B4201D34B01F7
:10040000C01A524103098B4201D30B01C01A524159
:10041000C3088B4201D3CB00C01A524183088B42E0
:1004200001D38B00C01A5241D9D243088B4201D369
:100430004B00C01A5241411A00D201466346524154
:100440005B10104601D34042002B00D54942704753
:1004500063465B1000D3404201B50020C046C04651
:1004600002BD704770477047F0B50C46871A9C4133
:100470000D46861A9D4103D2C01BA141D21963418A
:100480000D0D1F0DC94EEC1BAE435CD07F057F0DDB
:100490000026002F51D02D05AC46A943DD020123D3
:1004A000ED0A1B051D4320231B1B24D41746E740E0
:1004B000381871412F46E740CC199D402818314625
:1004C00061410C0D27D161449A4013D50023401C93
:1004D000594152000ED14008400001224B00520504
:1004E000D34207D305204007C14201D5B04900E0FF
:1004F000B0493046F0BD6B00002A00D001229A18A6
:100500001F23203C1B1B01D5002302E0E5402818D7
:1005100071410C0DD7D0012424050919C407CD075A
:1005200040084908E40F28436144002CD5D000243A
:10053000401C61419A40D0D1CDE76A05520DD9D116
:10054000C90FC907D5E79C4D4E00002801D00124F2
:1005500000E0002434195F00002A01D0012600E0E9
:100560000026BE19954FAC420CD8AE420AD8B44210
:1005700006D001256D05EC42BCD010461946F0BDF1
:100580009942FCD000203946F0BDF0B51FB40C46AE
:100590000F46811A9F412546861A9D4106D20125A4
:1005A000ED076F40401ABC4152187B41210D1E0DD2
:1005B0008D1BAC467D4D8D437ED075056D0D7CD079
:1005C0000D05AE46AC431B031B0B794D52429D41BA
:1005D000202366469B1B14D31746F7403818002685
:1005E0000090744160462F460741E41900989D40F1
:1005F0002818664116D4714671189A4025D50123F2
:1006000020E093182A466A415200002B00D0521C69
:100610001E23203E9B1B002B61DD3541EE17281861
:100620006641E8D5001876415B1C9A4000D3401C17
:100630004B05F3181524E34010D3002B52D071461C
:100640007118D30FC01802D3491C05B0F0BD0123A7
:10065000DB079A42F9D140084000F6E70122520533
:10066000B21801D1002853D00123CC0ADB029943F0
:10067000891E002A08D1020C03D0020C0004103994
:1006800002E00246002020390023550B05D112025A
:100690000823550B01D152010D23550C01D1120134
:1006A0001B1DD50C01D192009B1C150D01D15200D0
:1006B0005B1C2025EE1A01E02CE022E00546F54007
:1006C00015439840CA1AE10769181305C918002A8A
:1006D000BBDA032040070818C10FC9070FE07146B5
:1006E0006118B2E7F10740080843711071444A00ED
:1006F0000CD001235B059A42A7D2C90FC90700207D
:10070000A3E74905490D26D1002001E00028F4D1D6
:1007100000219AE7284D6600002801D0012100E061
:10072000002171185F00002A01D0012600E0002698
:10073000BE19224FA94210D8AE420ED8B14208D0FD
:1007400001256D05E94206D01946A8024140104630
:100750007BE79C4201D0214677E70020394674E7C9
:1007600010B50C465C4005D50124E4076340FFF753
:100770000CFF10BDFFF778FE10BD30B40C465C4096
:1007800004D50124E407634030BC6DE630BCFCE6D0
:1007900070B50124E40761400D465D4002D4FFF7C7
:1007A00063FE70BD6340FFF7F0FE70BDFF07000001
:1007B0000000F0FF0000F07F0000E0FF0000F87F85
:1007C000F0B5F94D0C091E092C402E402F468BB078
:1007D000A7437DD0B543FCD0002E7AD0002CFCD0AE
:1007E0000D465D40ED0F2543AC1BFF25AD0464199C
:1007F0000894C502440DC9022143500DDC02044394
:100800000120C00701430443D2020191200C110CC6
:1008100000958C46010423468B430A9161460904E6
:10082000E24D8A430991010A7D44491980390978CA
:1008300005464D4301266D18F605751B6943C90C25
:10084000640B891C4C436418B5012C1B250C2E0429
:10085000B4434C434D43210C691889090591009D0F
:10086000E90701D00121C90704912C4601996708C5
:10087000CD072F434C08059DE10B4D432D0C294618
:100880006646754302950D4645432E46029D7D1BE7
:10089000B44100950D465D4301942C0C2F040D4688
:1008A0005543AE462D0C3D43029503947546049C7A
:1008B0002D04641B049406D2029C039D641C002634
:1008C00075410395029401AC70CC009F7D1B01E043
:1008D0003EE162E1B4410904009507910194059954
:1008E000A4086143090C0C464443650BE7040C461D
:1008F00066467443A646640B3C43039502947446D3
:10090000049DE4042C1B049406D2029C039D641CE9
:10091000002675410395029401AC70CC009F7D1BAD
:10092000B44101940C465C430095650FE7000C460A
:100930005443A646640F3C43039502947446049DB9
:10094000E4002C1B049406D2029C039D641C002628
:1009500075410395029401AC70CC009F7D1BB4419E
:10096000AE09AF06049DC900AD092F43049DA4063E
:10097000AD060495079D344369180791059DE10B69
:100980004D432D0C29466646754302950D46454359
:100990002E46029D7D1BB44100950D465D4301949A
:1009A0002C0C2F040D465543AE462D0C3D430295AD
:1009B00003947546049C2D04641B049406D2029C87
:1009C000039D641C002675410395029401AC70CC14
:1009D000009F7D1BB44101948C050694079C890AF5
:1009E000611800950791019C0599A4086143090CC1
:1009F0000D464543680BEF040D46644665436C0B9A
:100A00003C43049FED047D1BAC4602D20025641CD0
:100A10006841009E019D371B85410846584301955A
:100A20000C46460FC5005443600F28436546E4005A
:100A30002C1B02D20025401C6E41019D3F1AB5417E
:100A40002846BD09800628438446A009BF064E02F9
:100A50000699A40676180743079D002068410A9965
:100A6000079019430020099B00906046FF1913432B
:100A70004041E20F64003A43A4460446D71A8C4131
:100A8000A04203D90120009020463A46C70F94188F
:100A900040416246D20F2243644664000494009CA5
:100AA000BE466400D71AA446044602978C41774696
:100AB000002F01D1A04204D96046401C8446029A0E
:100AC0002046C40FA64694184041049A0546D20F0A
:100AD000224364466400D31A8D417146002901D136
:100AE000A84202D928461A46641C10430122002855
:100AF00000D0164361020020079B891904465C411F
:100B00000223002C02DB491813466441089DCE0ADB
:100B10002D145D194B056705E10A2C050D1908997F
:100B20003E43C9076940002B08D0934006D30022FA
:100B3000761C5141002B01D1760876001C4A002D0D
:100B400043DB154241D0AA433FD030460BB0F0BD45
:100B500006180D464D41174C7642AC411AD39518F4
:100B60001C465C41134A6D42A24113D30122520537
:100B70004C00D4420AD15C00D4420BD04B4002D589
:100B800092021143E2E749004908DFE75940C90FE3
:100B9000C90718E000200849D8E7054801420DD1EF
:100BA0000342F7D0F2E700000000FF07A45F000057
:100BB0000000F07F0000E0FF0000F87F114859407E
:100BC0000143C01241400020C0E70123089A9B0660
:100BD0009A4205DC032252078918C90FC907B5E7F5
:100BE000052252078918074A1143D2125140ADE736
:100BF00070B515461C4602460B4628462146FFF7AF
:100C0000DFFD70BDFFFFFF7F0346CA02400D10B538
:100C100010430A1504D00124E4072043002A05DB11
:100C20000A4CA21A04D4D040FF2A00DD002010BDD7
:100C30004A00002B01D0012000E000201018012202
:100C40005205D042F2D8C817C04310BD1E040000A0
:100C5000F0B58B4C0F09254689B0BD437BD01D09EB
:100C60002646AE43FAD00E465E402740F60F3E437E
:100C7000254071D024012142FBD0FF24AD19A404EA
:100C80002D1B039501252D05DB02DB0AC9022B4331
:100C9000C90A29431E010901040F130F050121434D
:100CA0001701880B820391432D098C46A90B1E4323
:100CB0008A039543B30B9A0396433F09BA0B9403F7
:100CC000A74302962E467E430497B6464E19D7197F
:100CD0000C460196544305977E43371B7646BF1B4F
:100CE0003601B646BE0B361900967646BC04371957
:100CF000009C01D3641C00946400002F01D00126E5
:100D00003443029E049F754366467E4304967600F4
:100D100034196E0034190094029C019E1C1966431C
:100D2000751BAE46069465464519059C05956C43B2
:100D3000594375460891691A0191049E0146514331
:100D4000A41B0491611A009C0791E10605D061097A
:100D50000122114302E072E06EE06109089D002764
:100D60002C0A2D066918049D7C412A0A2D06691853
:100D7000019D6241AC0DAD026D185441079A910D71
:100D8000920255196141029A644658435443069BA6
:100D9000059A5A43121A131B9A0E9B015B187A414B
:100DA000010B0005C3185141220A200644195A417B
:100DB0009A4200D2491C01204002814203D31523EC
:100DC0000226F64302E014230326F6432020C51A28
:100DD000A9401746AF40DA400A4320460399D8405D
:100DE0000914731819055118039A3843D207514052
:100DF000AC4009D00122944006D30022401C51414E
:100E0000002C01D1400840001E4A934212D3012217
:100E100003989206904207DB0520400709181A48FC
:100E20000143C012414004E0032040070818C10FED
:100E3000C907002009B0F0BD0020F107FAE7051846
:100E40000C464C4111486D42A04115D394181A46E6
:100E50005A410E48644290410ED301204A00400599
:100E6000824209D35A00824206D35940C90F084A28
:100E7000C90700201143DDE700200649DAE700003A
:100E80000000FF07FE070000FFFFFF7F0000E0FFFC
:100E90000000F07F0000F87F10B500F063F90068F3
:100EA00010BD10B5044600F05DF9046010BD0000EF
:100EB000F8B5224C4E00069DA6420AD8A64201D1A2
:100EC000002806D15E00A64203D8A6420AD1002A15
:100ED00008D00D24240425422CD02946002000F0FF
:100EE00045F9F8BD0C461C430CD4994202D0EFF3EF
:100EF0000080F8BD904202D0EFF30080F8BDEFF320
:100F00000080F8BD09242407E5008B4206D0EFF3EA
:100F10000080A043591A06D2284304E0101A05D3D2
:100F2000EFF30080A04380F30088F8BDEFF300806A
:100F3000A043F1E7009500F031F9F8BD0000E0FFB3
:100F400030B50346CA02400D1043164D164C0A1523
:100F500002D02043002A06DBAA1A002A12DDD04064
:100F6000FF2A0BDC30BD5205520D01D14000400874
:100F7000AA1A07D4D0404042FF2A01DD002030BD2C
:100F80000028FCDD4A00002B01D0012000E00020F9
:100F9000101801225205D042F0D8C817C043604053
:100FA00030BD00001E040000000000801F22030C62
:100FB00002D10F22000402D0030E03D004E000206F
:100FC000014670470002083A030F01D10001121FC9
:100FD000830F01D18000921E002801DB4000521EC9
:100FE000120551184205C012411810467047C10F32
:100FF000C90700D04042012292071143D6E70121E0
:101000008907D3E770B505464800440D124B002010
:10101000002C0AD0634008D09A4206DA6642B242F7
:1010200003DD12054019514170BD002C08D0002B82
:1010300009D0C90FC907002AF6DB084A114370BD61
:10104000C90FC90770BD28460A03104302D000200B
:10105000034970BD284670BDFF0700000000F07F07
:101060000000F87FF0B53D4B02460C461C400020C6
:10107000002C63D03A4D8B4366D000296BDB0B0DFF
:101080001D05A94301252D0529430124FD33E34016
:1010900001D392184941FF3381339C468B02940D52
:1010A0000121234389074C42920200271B198C100F
:1010B0005D1A04D42D1B02D42B46650049199218E1
:1010C0005B416408F4D15C1A08D40125ED07EE17E2
:1010D0005519744102D42A462346491C94185B4191
:1010E000012292071D46E61B8D4106D4B61A8541A2
:1010F00003D42B46550034467F1924195B4152080E
:10110000802AEFD1234300D0022338460A22D04060
:1011100001D3012213438A0510436246890A12054E
:101120008918002B09D00122D34002D30022401C91
:101130005141002B01D140084000F0BD0B03134387
:1011400007D0C90FC907F0BD0803104303D1002918
:1011500001DB1046F0BD00202946F0BD0000F07F05
:101160000000F87F00487047481F0020C80212D5D1
:101170004803400F002804D0C803C0430121884021
:101180007047EFF3008000010009032109070843BD
:1011900080F30088704700207047000010B50020E1
:1011A0000249029A00F02FF810BD00000000F87FFD
:1011B00000487047481F00207546FFF7F9FFAE460C
:1011C000050069465346C008C000854618B020B5E2
:1011D000FEF7DCFF60BC00274908B6460026C0C504
:1011E000C0C5C0C5C0C5C0C5C0C5C0C5C0C5403DDF
:1011F00049008D46704710B50446C046C04620469B
:10120000FEF797FF10BD10B50C461107090F09290D
:1012100004D00A290AD008290CD104E0114608207C
:10122000FFF7A4FF06E0510606D501E0510601D5FF
:101230000120C007214610BDD10607D501010909CB
:10124000CC084907000E0006044309E0410F2002C4
:101250004907000A0143200E00061D22D141014327
:101260000846E7E77047000001491820ABBEFEE7DB
:101270002600020070B58C180578401C6B075B0FC8
:1012800001D10378401C2A1106D10278401C03E0EA
:101290000678401C0E70491C5B1EF9D12B0705D443
:1012A0000023521E0DD40B70491CFAE70378401C32
:1012B000CB1A921C03E01D780D70491C5B1C521E5A
:1012C000F9D5A142D8D3002070BD10B504F0E4FEDA
:1012D000002010BD08B5002069460880684600F06F
:1012E00081FF002801D06846008802F005F808BD9B
:1012F000FF24F534FFF7EEFF204604F0B4FBF9E7D6
:1013000030B50346002007240EE01A785040002232
:101310005B1C050602D54000604000E04000521C06
:10132000D2B2C0B2082AF4D30A46491EC9B2002A72
:10133000EBD130BDF0B5FFB0FF2582B00C460746BB
:101340002E466A1C0D496846FEF7FAFE6A1C0C49D7
:1013500040A8FEF7F5FE694640AA05E038786840E7
:101360000D5C7540165C7F1C2046641EE4B20028AC
:10137000F4D128027FB0304302B0F0BDD062000843
:10138000D0630008884200DC0846904200DC10462A
:101390007047884200DB0846904200DB10467047E9
:1013A00008B505480121C26B09070A43C263C06B37
:1013B0000840009008BD00000010024010B501F088
:1013C00041F80120400301F04BF80120C00301F077
:1013D00053F8012004F047FB10BD10B501F032F8BE
:1013E0000120000301F03CF80120C00301F044F8A3
:1013F000012004F038FB10BD10B501F023F80120E6
:10140000400301F02DF80124A403204601F034F834
:10141000012004F028FB01F015F8A01001F020F8DD
:10142000204601F029F8012004F01DFB10BDF8B59D
:1014300001252D036C006600A700030002F022FBCB
:101440000A06415378B0C2C9D0DCFCAF00F0FAFF05
:10145000284601F005F8204601F00EF8012004F0BE
:1014600002FB00F0EFFF204600F0FAFF284601F0F3
:1014700003F8012004F0F7FA00F0E4FF304600F032
:10148000EFFF204600F0F8FF012004F0ECFA00F036
:10149000D9FF304600F0E4FF284600F0EDFF0120C0
:1014A00004F0E1FA00F0CEFF384600F0D9FF2846FC
:1014B00000F0E2FF012004F0D6FA00F0C3FF384646
:1014C0000DE000F0BFFF204600F0CAFF284600F004
:1014D000D3FF012004F0C7FA00F0B4FF304600F05B
:1014E000BFFF204656E000F0ADFF284600F0B8FFF1
:1014F000204600F0C1FF012004F0B5FA00F0A2FF81
:10150000204600F0ADFF284600F0B6FF012004F0B1
:10151000AAFA00F097FF304600F0A2FF284600F03C
:10152000ABFF012004F09FFA00F08CFF384623E067
:1015300000F088FF284600F093FF204600F09CFF53
:10154000012004F090FA00F07DFF204600F088FFB3
:10155000284600F091FF012004F085FA00F072FFA8
:10156000304600F07DFF204600F086FF012004F0A9
:101570007AFA00F067FF304600F072FF284600F06C
:101580007BFF012004F06FFA00F05CFF384600F0AA
:1015900067FF304600F070FF012004F064FAF8BDE8
:1015A00000F050FF204600F05BFF284600F064FF8B
:1015B000012004F058FA00F045FF304600F050FFDB
:1015C000204672E000F03EFF284600F049FF20462A
:1015D00055E000F037FF284600F042FF20461CE0AF
:1015E00000F030FF284600F03BFF204600F044FFAB
:1015F000012004F038FA64E700F024FF284600F0E8
:101600002FFF204600F038FF012004F02CFA00F0F4
:1016100019FF204600F024FF284600F02DFF01208E
:1016200004F021FA00F00EFF304600F019FF2046CA
:1016300000F022FF012000E010E004F014FA00F0B6
:1016400001FF304600F00CFF284600F015FF012096
:1016500004F009FA00F0F6FE384623E000F0F2FE4E
:10166000284600F0FDFE204600F006FF012004F0B1
:10167000FAF900F0E7FE204600F0F2FE284600F0FE
:10168000FBFE012004F0EFF900F0DCFE304600F034
:10169000E7FE204600F0F0FE012004F0E4F900F03F
:1016A000D1FE304600F0DCFE284600F0E5FE0120C9
:1016B00004F0D9F900F0C6FE384600F0D1FE20460D
:1016C0005DE7F8B50124E4026500A600E700030029
:1016D00002F0D8F90A06415384A9BBC2C9D5FD83DB
:1016E00000F0B0FE204600F0BBFE284600F0C4FE2D
:1016F000012004F0B8F900F0A5FE284600F0B0FE85
:10170000204600F0B9FE012004F0ADF900F09AFE89
:10171000204600F0A5FE304600F0AEFE012004F0A9
:10172000A2F900F08FFE304600F09AFE204600F04D
:10173000A3FE012004F097F900F084FE204600F09B
:101740008FFE384600F098FE012004F08CF900F07E
:1017500079FE384639E000F075FE284600F080FE3C
:10176000204600F089FE012004F07DF900F06AFEB9
:10177000204600F075FE30462AE000F063FE204669
:1017800000F06EFE284600F077FE012004F06BF9B1
:1017900000F058FE284600F063FE204600F06CFE84
:1017A000012004F060F900F04DFE304600F058FED4
:1017B000204600F061FE012004F055F900F042FEE1
:1017C000204600F04DFE3846C0E000F049FE2046BD
:1017D00000F052FE012004F046F9F8BD00F032FEA0
:1017E000204600F03DFE284600F046FE012004F0B1
:1017F0003AF900F027FE284600F032FE204600F0BD
:101800003BFE012004F02FF900F01CFE204600F002
:1018100027FE304600F030FE012004F024F900F0ED
:1018200011FE30468FE000F00DFE284600F018FE55
:10183000204600F021FE012004F015F900F002FE20
:10184000204600F00DFE304675E000F0FBFD20461E
:1018500000F006FE284658E000F0F4FD204600F0B7
:10186000FFFD28461CE000F0EDFD204600F0F8FDED
:10187000284600F001FE012004F0F5F86BE700F0C7
:10188000E1FD204600F0ECFD284600F0F5FD0120CA
:1018900004F0E9F800F0D6FD284600F0E1FD20460E
:1018A00000F0EAFD012004F0DEF800F0CBFD204658
:1018B00000F0D6FD304600F0DFFD012004F0D3F843
:1018C00000F0C0FD304600F0CBFD204600E00BE00C
:1018D00000F0D2FD012004F0C6F800F0B3FD204670
:1018E00000F0BEFD384626E000F0ACFD204600F0DA
:1018F000B7FD284600F0C0FD012004F0B4F800F068
:10190000A1FD284600F0ACFD204600F0B5FD012009
:1019100004F0A9F800F096FD204600F0A1FD304645
:1019200000F0AAFD012004F09EF800F08BFD304687
:1019300000F096FD204600F09FFD012004F093F892
:1019400000F080FD384600F08BFD204600F094FD4D
:10195000012004F088F800F075FD0120C00334E791
:1019600010B5082003F0F4FA034A0249002051623E
:10197000106210BD0000F03FF81E0020F0B5FF4CD3
:101980000123B7B000229B07616A206A03F0D8FDEB
:101990001B911A900022FA4B616A206A03F0D0FD75
:1019A0001F911E900022F74B616A206A03F0C8FD68
:1019B000239122900022F44B616A206A03F0C0FD5B
:1019C0001D9105460022F14B616A206A03F0B8FDC3
:1019D00006460F46EE4AEF4BFFF73AF92D912E904F
:1019E000ED4AEE4B28461D99FFF732F92B912C90CA
:1019F000EB4AEC4B23992298FFF72AF929912A9078
:101A0000E94AEA4B1F991E98FFF722F9279128907F
:101A1000E74AE84B1B991A98FFF71AF92591269087
:101A20000022E54B616A206A03F08AFDE34AE44B39
:101A3000FFF70EF9E34AE44BFEF7AAFE259B269A30
:101A4000FEF78EFE279B289AFEF797FE299B2A9A7F
:101A5000FEF786FE2B9B2C9AFEF78FFE2D9B2E9A6F
:101A6000FEF77EFE25912490D84AD94B3046394660
:101A7000FFF7EEF82C902A91D64AD74B28461D99AD
:101A8000FFF7E6F828902991D44AD54B239922985C
:101A9000FFF7DEF827912690D24AD34B1F991E9864
:101AA000FFF7D6F805462191D04AD14B1B991A98D9
:101AB000FFF7CEF806460F46CE4ACF4B616A206A42
:101AC000FFF7C6F8CD4ACE4BFEF74AFE32463B46FC
:101AD000FEF753FE2A46219BFEF742FE279B269ADD
:101AE000FEF74BFE299B289AFEF73AFE2A9B2C9A7A
:101AF000FEF743FE0E46A349054600204942259BBA
:101B0000249AFEF75DFE2A463346FEF759FE02F0A0
:101B1000FDF8074600201D91A7490B910E900A90F1
:101B20000C901D990F900D901097119103CC299155
:101B300028906168206827912690E168A068339119
:101B40003290616920690026319130900020F400C4
:101B500002AD01462A1903C20AA8011903C92B9133
:101B60002A90299B289AFFF773F800221346FEF764
:101B7000F7FD2A1903C22E902F910AA8211808698F
:101B8000496901910090339B329AFFF761F82F9BCE
:101B90002E9AFEF7E5FD2A1903C2621900202C9245
:101BA00010615061279B269A2B992A98FFF750F8CD
:101BB00000221346FEF7D4FD2C9A516110612B913F
:101BC0002A90319B309A01990098FFF741F82B9B9E
:101BD0002A9AFEF7C5FD2C9A51611061019100907F
:101BE000002112A80A46001906C028190CC8084688
:101BF000FEF7B6FD12AA121903C212AAA4180020F9
:101C0000206160613A461D9B01990098FFF720F81A
:101C100000221346FEF7A4FD761C61612061022EAE
:101C200094DB784A784B23992298FFF711F820919A
:101C30002290764A764B1F991E98FFF709F81F915C
:101C40000646744A744B1B991A98FFF701F80D4623
:101C50004A490446086A496A704A714B3391349084
:101C6000FEF7F6FF6F4A704BFEF792FD22462B46B9
:101C7000FEF776FD32461F9BFEF77FFD209B229AE2
:101C8000FEF76EFD0D460446684A694B139912989B
:101C9000FEF766FD1B9103910290169A32901A90FE
:101CA000319106921499179B1598239022910590D3
:101CB0002692079304912D901E462F9330922E91D9
:101CC0005A4A5C4B19991898FEF74AFD21910890E1
:101CD000099120902B912C9022462B461B991A9803
:101CE000FEF7B6FF1F911E90219A20991A92289113
:101CF000334620462946269AFEF7AAFF1A9B289AC1
:101D0000FEF73BFD28902991239B229A1F991E984C
:101D1000FEF733FD22462B46FEF79AFF299B289AB1
:101D2000FEF72BFD444A454BFEF71AFD02460B46D3
:101D300000202149FEF744FD1A901B913346269A54
:101D40001F991E98FEF719FD1B9B1A9AFEF780FF3C
:101D50001E901F9122462B46209E23992298FEF723
:101D600077FF3246219BFEF708FD1B9B1A9AFEF770
:101D70006FFF22462B462391229061E0F81E00203F
:101D8000000008400000104000001440000018400F
:101D9000925CFE43FA6D014046425BCEA5B81B4003
:101DA000EFFE78AF5A8920401344DD0720351240FA
:101DB0006F8104C58F31F23F0000F03FD3C1FA3F7D
:101DC00087F9BA3FF67F0EF3E505983FE78C28EDDB
:101DD0007CD2EF40A8E331834C3408410A80F18C77
:101DE00037C80B4156D4609A6EE2FD40C6BFCFB8EB
:101DF0002AA8DE40C1FF56B29385AB40780B242859
:101E00007E6469402497FF907EAB2240BC3FDEABEE
:101E100056463440E3FC4D2844203140EF7211DF38
:101E200089191C4058569A94826EFB3F3A8C30E2D6
:101E30008E79553E8E79453E8DEDB5A0F7C6B03E04
:101E40001F991E98FEF704FF1391129022462B460D
:101E500023992298FEF7FCFE1591149001221F99F8
:101E6000D207514017911E982399169051402298FD
:101E7000002519911890EC0012AAA1180869496967
:101E800001910090111903C906461B91319B329AAA
:101E9000FEF7DEFE289027912D9B2E9A019900983F
:101EA000FEF7D6FE279B289AFEF75AFC02AA1319C2
:101EB0000CCBFEF76DFC0AAA121903C230462F9B09
:101EC000309A1B99FEF7C4FE06461B912B9B2C9A59
:101ED00001990098FEF7BCFE32461B9BFEF740FCC2
:101EE00002AAA3181A695B69FEF752FC0AAAA21893
:101EF0006D1C51611061022DBDDB954C9549E36A63
:101F0000A26A0193009203C9FEF7A2FE339B349AA2
:101F1000FEF726FC05460E463846636B226B1D997C
:101F2000FEF796FE209126903A4600208A491D9B96
:101F3000FEF723FC259B249AFEF78AFE019B009A5C
:101F4000FEF786FE209B269AFEF70AFC01232591C8
:101F5000249000229B072846314603F0F1FA1D9198
:101F60001C9000227D4B2846314603F0E9FA01918E
:101F7000009000227A4B2846314603F0E1FA29917D
:101F800028900022774B2846314603F0D9FA279152
:101F90000746754A616A206A516110610A980B9977
:101FA00003C40F990E98616020600D990C98E16050
:101FB000A060119910986161206100226B4B284646
:101FC0003146083C03F0BCFA694A6A4BFEF740FE12
:101FD000359136900022684B2846314603F0B0FA1E
:101FE000664A674BFEF734FE33913490654A664B80
:101FF00038462799FEF72CFE31913290634A644BA4
:1020000029992898FEF724FE2E902B91614A624B65
:1020100001990098FEF71CFE2F9130905F4A604BAB
:102020001D991C98FEF714FE2D912C905D4A5E4B75
:1020300028463146FEF70CFE5C4A5D4BFEF790FBEE
:102040002D9B2C9AFEF799FB2F9B309AFEF788FB6D
:102050002B9B2E9AFEF791FB319B329AFEF780FB69
:10206000339B349AFEF77CFB359B369AFEF785FB53
:10207000E36AA26AFEF7ECFD2C902B914D4A4E4B81
:1020800038462799FEF7E4FD27912A904B4A4C4B9E
:1020900029992898FEF7DCFD21912890494A4A4B5E
:1020A00001990098FEF7D4FD20912690474A484BAD
:1020B0001D991C98FEF7CCFD07461D91454A464BDD
:1020C00028463146FEF7C4FD444A454BFEF748FB1F
:1020D0003A461D9BFEF751FB209B269AFEF740FBDC
:1020E000219B289AFEF749FB279B2A9AFEF738FB8B
:1020F000259B249AFEF741FB2B9B2C9AFEF73DFB78
:10210000E36BA26BFEF744FB0F461C901F9B1E9ACD
:10211000FEF79EFD2A463346FEF722FB2546616206
:1021200040352062E968A868E162A0623946239BD5
:10213000229A1C98FEF78CFD259B249AFEF710FB33
:102140006163206303CDE163A06337B0F0BD00009D
:10215000F81E0020C86700080000F03F000008409B
:1021600000001040000014402007002000001C4028
:10217000A913D044D8F0FD3F00001840499D8026A7
:10218000C2A61040068195438B6C0440E7C6F484D8
:1021900025DE2B4007B13385CE7B2C40FA6184F0DD
:1021A00068031940376C5B94D920F33FB3EF8AE0A2
:1021B0007F2BA93F3A58FFE730DFFD3FBC3FDEAB46
:1021C000564614402F51BD35B0D51640EF7211DF81
:1021D00089190C4058569A94826EFB3F3012DA727D
:1021E0002E850B40F0B5234A1A211E23515ED35E83
:1021F0008646C91A00200F4663371F4B0126054645
:102200000446C62F01D95E7005E00F461D373A2FF0
:1022100001D800275F70194FC9197F00B94201D951
:10222000002159702027D75F124A0021BC46403A4E
:102230004E00B618768B124FBE4206D9664504DDB5
:1022400001252E468E402643B4B2491CC9B20A2944
:10225000EED371460C805179432909D1142151568E
:10226000642905DA012D03D15978012900D1012013
:10227000F0BD0000A81E0020E2060020E7030000D9
:102280003C0F00000069814301D00020704701200D
:102290007047002A01D0816170478162704770B534
:1022A0000024049E04E00D5D854203D8641CE4B262
:1022B0009442F8D30025002C0BD0002D15D0601EC1
:1022C0001521484340194000801940383E21415EA5
:1022D00010E06900705E002D04D08A19403A3E215A
:1022E000515E0DE00021715E0AE0601E1521484339
:1022F0004000315E601E1522504340194000305EA0
:10230000834204DC6D1CEDB2152DD4D301E0002D09
:1023100010D0142D10D881420CDD091A181A820031
:102320008018FDF7FBFF1421491B8A00891840180B
:1023300000B202E0642000E0002080B270BD000026
:1023400008480749016008490160022141600749C6
:102350008160C1684907FCD10549016070470000F0
:10236000CCCC00000030004055550000FF0F0000AD
:10237000AAAA000070B50D460446FFF72EF8432DBB
:1023800001D1FFF71BF820460A21FDF7BDFF0D46DE
:10239000642C06D3FFF730F80020FFF748F8002040
:1023A00002E00A2C03D22046FFF78BF901E0FFF789
:1023B0003EF82846FFF785F970BD10B500F042F8E9
:1023C0000124E403204600F04BF8601000F054F8BC
:1023D000012003F048FB00F035F8204600F040F8FB
:1023E000201100F049F8012003F03DFB00F02AF82D
:1023F000E01000F035F8204600F03EF8012003F030
:1024000032FB10BD00B587B018216846FDF77AFF92
:102410000A480221426B0A434263406B084006901F
:10242000012001901F20C00200906946044800F07E
:1024300067F800F007F807B000BD00000010024088
:102440000004005070B51F25044CED0201222946FE
:10245000204600F0ABF8A56170BD000000040050FC
:1024600070B5044D044601460022284600F09EF84F
:10247000AC6170BD0004005070B5044D04460146C7
:102480000022284600F092F8AC6270BD00040050B3
:1024900010B5052100240907884204D1012000F06D
:1024A000A3F801201EE01249884204D1022000F066
:1024B0009BF8022016E00F49884204D1042000F066
:1024C00093F804200EE00C49884204D1082000F063
:1024D0008BF8082006E00949884206D1202000F048
:1024E00083F8202000F088F800E00124204610BD89
:1024F0000004005000080050000C00500014005070
:10250000F0B500244CE00123A3401A4047D04B68AB
:10251000012B01D0022B0FD18E68856813465343DF
:102520005F00DF19BD4373431D438560CB68456879
:10253000534395431D4345600F69C6681346534393
:102540005D005D19AE435F433E43C6604E68022E98
:102550001FD1FF2A0ED817464A69066A94461A46C2
:102560007A437A431701BF1ABE4367467A4316433C
:1025700006620EE0160A324672434F697243724396
:10258000BC461601B71A466ABE4367467A431643ED
:1025900046624A6806685343AE431E430660641CA5
:1025A0000A681346E340AED10020F0BD43688B4378
:1025B00051430B434360704708B504494A6B0243DB
:1025C0004A63496B0140009108BD000000100240C1
:1025D00008B504494A6B02434A63496B01400091C4
:1025E00008BD00000010024002494A6A02434A62E4
:1025F000704700000010024002494A6A82434A6262
:10260000704700000010024010B57D21C900FDF7A1
:102610007BFE0449401E4861002088610520086156
:1026200010BD000000E000E010B5044600F054FBCF
:10263000206000F031FB606000F03EFBA06010BD48
:10264000F8B501260024194D194FF603032802D0CE
:102650000C2815D022E000F031F81649401804D0BB
:1026600001281DD0022803D113E000F035FB05E05E
:1026700000F032FB00F010FB00F01EFB04460DE002
:1026800000F01CF80C494018EFD0042808D00828A6
:10269000EED1F8698007C00F00D034462046F8BD5F
:1026A00000F014F80128F9D12C46F7E70024F400D3
:1026B00040100240FFFFFCFFFCFFF3FF02494969A5
:1026C000014000040843704740100240024800687F
:1026D0004005C00F704700000010024003494A69DE
:1026E000030C9A4380B202434A6170474010024093
:1026F000014908607047000014000020F0B502682E
:10270000194B1A4C984201D0A04203D17025AA431C
:102710004D682A43164D174E174F98420AD0A042D3
:1027200008D0164CA04205D0A84203D0B04201D038
:10273000B84204D103242402A243CC68224302609D
:102740008A68C2620A888262984205D0A84203D091
:10275000B04201D0B84201D1096901634169012247
:10276000114341610020F0BD002C014000040040F5
:10277000004001400044014000480140002000406A
:1027800041680922D2029143416081682A22914323
:1027900081607047144B00221449984208D10120EF
:1027A0000B6B800303430B630B6B83430B6318E0DA
:1027B0000F4B984202D1012040040AE00D4B984291
:1027C00002D10120800404E00B4B984208D1012083
:1027D000C004CB6A0343CB62CB6A8343CB6200E085
:1027E00001221046704700000038014000100240EE
:1027F0000044004000480040004C0040EFF31081CE
:10280000012282F31088026820231A43026081F3B8
:1028100010887047FEB5044600680D460127384011
:1028200064D12969A868EA690843696911430843C2
:1028300021682F4A114008432060E868616803223C
:102840001203914301436160A969A068121190438A
:102850000843A0602748844201D1032003E02648B2
:10286000844203D10C20FFF7EBFE09E023488442A9
:1028700002D02348844232D16846FFF7D5FE029841
:1028800000282CD06E68002E29D029680027EA691C
:102890000B2924D80123DB039A4213D109068A0DA0
:1028A00018498958FDF730FD40007108401831463D
:1028B000FDF72AFD81B2144808400907490F01437A
:1028C000E1600CE009068A0D0E498958FDF71CFDF0
:1028D000710840183146FDF717FD80B2E060288886
:1028E000E16A80B2090909010143E1623846FEBD8F
:1028F000F369FFEF00380140004400400048004009
:10290000004C0040D0640008F0FF000010B5EFF369
:102910001082012383F31088836807246406A3438D
:1029200049060B43836082F3108810BDEFF31082D9
:10293000012383F310888368DB00DB0849070B431E
:10294000836082F31088704708B506490A690092CF
:10295000421C00D0401C0A69D20300D5401E00284A
:10296000F9D108BD00E000E010B586B01821684636
:10297000FDF7C8FC2020FFF71FFE0120FFF71CFE1B
:102980000120019002900020039004900220052471
:102990002407009069462046FFF7B2FD002202217D
:1029A0002046FFF776FC06B010BD0000F0B58FB0F2
:1029B000202106A8FDF7A6FC18216846FDF7A2FC19
:1029C00003200004FFF78AFE2E48012102688903D4
:1029D0000A430260006808400E900120FFF7F8FDEE
:1029E00001200024012640020527059602253F0705
:1029F0000090029403946946019504943846FFF7C9
:102A00007FFD680205960090029403946946019543
:102A100004943846FFF774FD02211B2001F062F890
:102A20001B2001F053F8184D2846FFF7E7FEE12080
:102A30004002079006940C2008940B9009940A9485
:102A40000C9406A90D942846FFF7E4FE00212846C1
:102A5000FFF76CFF00212846FFF758FF2868710731
:102A6000884328602846FFF78BFE2868304328609B
:102A7000E8698002C00FFBD0E8694002C00FF7D0C0
:102A80000FB0F0BD4010024000380140F1B590B0E9
:102A9000202106A8FDF736FC18216846FDF732FC18
:102AA00003208004FFF71AFE2D480121C26B490460
:102AB0000A43C263C06B08400E900120FFF788FDF7
:102AC0000024012604200527059602253F070090D3
:102AD000029403946946019504943846FFF710FD6B
:102AE0000820059600900294039469460195049489
:102AF0003846FFF705FD01211C2000F0F3FF1C20E4
:102B000000F0E4FF174D2846FFF778FE0694109872
:102B100007900C2008940B9009940A940C9406A931
:102B20000D942846FFF776FE00212846FFF7FEFEAB
:102B300000212846FFF7EAFE2868E9048843286058
:102B40002846FFF71DFE286830432860E8698002A8
:102B5000C00FFBD0E8694002C00FF7D011B0F0BD44
:102B60000010024000440040FEE70000FEB50024D3
:102B700069460C721D4D8C801B481D4E686730786D
:102B8000800727D401A902A801F062FA002821D009
:102B90006846007A00281ED0012802D002280FD1F2
:102BA00001E0144801E01348A830009069468B8882
:102BB000A87D04221049FFF772FBC4B2642C09D827
:102BC00030880221084330806421686FFDF79CFB48
:102BD0006043A867FEBD0948009069468B88064996
:102BE0000822A87D0B31E6E700A51D01681E002024
:102BF0008C0000202E040020A90000209205002057
:102C000010B51A4C02212046FFF73CFB002814D1D6
:102C10000A2002F028FF02212046FFF733FB00289C
:102C20000BD113A002F020FBFF20F53002F01BFFB8
:102C3000002204212046FFF72CFB02F0EBFF7D2150
:102C4000C900FDF761FB0E490968401A78280BD9C5
:102C50000C484079432807D00BA002F005FB002266
:102C600004212046FFF715FB10BD000000040050B2
:102C70000D0AB0B4BCFCB9D8BBFA2E0D0A00000096
:102C800000000020681E00200D0AB3ACCAB1B9D8FC
:102C9000BBFA2E0D0A000000054989688A093C210B
:102CA0000A400A400349895CC906C90EC8407047FA
:102CB000001002400065000805498968054A49047A
:102CC000490F8900515CC906C90EC8407047000011
:102CD000001002404065000810B515498B68382087
:102CE0000340144A082B08D05000102B07D0096865
:102CF00089044A0F0121914017E0104610BDCB68AE
:102D00009B079B0F022B01D0032B00D00246C86803
:102D1000440FC8684006430FC868591C4004400E61
:102D20005043641CFDF7F0FA2146FDF7EDFA10BDA3
:102D30000010024000127A00484310B57D21C900FE
:102D4000FDF7ECFA0D4900280B880D498A6F02DD6A
:102D5000DB0604D410E000280EDA9B0601D5002023
:102D60000AE043429A4207D2002002468867486F31
:102D7000824200D3886710BD1018F6E78C0000204F
:102D8000681E002008B5002069460870024605202C
:102D900002210007FFF77DFAFA2002F064FE00F03E
:102DA000D5FA01226946192000F090F940B20028B6
:102DB00008D16846007841060F48490E01700FA0FF
:102DC00002F052FA01226946002000F07FF940B279
:102DD000002810D10E4901220888120390436A4648
:102DE0001278D206D20F120310430880C004C10F1C
:102DF00008A002F039FA08BDE806002053485465DF
:102E00006D70436F6566663D25640D0A0000000025
:102E10008C0000204D43554374726F6C42616C3DD1
:102E200025640D0A0000000010B50F4C002280211F
:102E30002046FFF72EFA012000F008FC0122402175
:102E40002046FFF726FA022000F000FC0022402175
:102E50002046FFF71EFA022000F0F8FB0122802135
:102E60002046FFF716FA10BD0004005010B50D4CB7
:102E7000012280212046FFF70CFA012000F0E6FB3A
:102E8000012240212046FFF704FA022000F0DEFB79
:102E9000002240212046FFF7FCF9022000F0D6FB7B
:102EA00010BD00000004005070B50024124E2546ED
:102EB000022000F0CBFB012240213046FFF7E9F968
:102EC000012000F0C3FB6006040E80213046FFF7AE
:102ED000D9F9002801D0641CE4B2012000F0B6FB4F
:102EE000002240213046FFF7D4F96D1CEDB2082DC9
:102EF000DED3204670BD00000004005070B5164EB1
:102F000005460024280601D5012200E00022802188
:102F10003046FFF7BEF9012000F098FB0122402166
:102F20003046FFF7B6F96806050E022000F08EFB6A
:102F3000002240213046FFF7ACF9012000F086FB6B
:102F4000072C04D1012280213046FFF7A2F9641C2E
:102F5000E4B2082CD6D370BD0004005010B5022096
:102F600000F074FB104C012280212046FFF791F9FC
:102F7000012000F06BFB012240212046FFF789F978
:102F8000042000F063FB002280212046FFF781F936
:102F9000042000F05BFB002240212046FFF779F976
:102FA000012000F053FB10BD0004005010B50D4C83
:102FB000002280212046FFF76CF9022000F046FB3A
:102FC000012240212046FFF764F9012000F03EFB7A
:102FD000012280212046FFF75CF9022000F036FB39
:102FE00010BD00000004005070B5114D0122802179
:102FF0002846FFF74EF9022000F028FB012240216D
:103000002846FFF746F9012000F020FB80212846E2
:10301000FFF738F9C4B2012000F018FB002240216C
:103020002846FFF736F9022000F010FB204670BD5D
:1030300000040050F0B58DB00E4607461446042536
:1030400034216846FDF75EF9342168460170477007
:1030500084703521C170FFF781FF3420FFF74EFFE8
:10306000FFF7C2FF3846FFF749FFFFF7BDFF2046D5
:10307000FFF744FFFFF7B8FFFFF770FF3520FFF7BA
:103080003DFFFFF7B1FF6F4609E0FFF70DFF7855F1
:10309000FFF7CAFE785D6D1C3070EDB2761C2046DD
:1030A000641EE4B20028F0D1FFF7FEFE0446FFF7ED
:1030B000DDFEFFF77BFF29466846FEF721F9A042B7
:1030C00002D100200DB0F0BDFF20FBE7F8B515469A
:1030D0000E46074600242A4631463846FFF7AAFF27
:1030E000641CE4B2002801D0032CF4D3F8BD000026
:1030F000FEB50D46064600216846017115A0006820
:10310000009068460C46467085700321FEF7F8F87B
:1031100001466846C170FFF721FF6F46385DFFF733
:10312000EDFEFFF761FF641CE4B2042CF6D3FFF759
:103130003DFF0520FFF708FC012201A93046FFF7FB
:10314000C5FF68460079854201D10020FEBD002000
:10315000C043FEBD3400000008B5022269466E205F
:10316000FFF7B4FF68460088154940BA4B79C20B97
:103170008031492B08D0002A12D04988081AAF2183
:10318000C9434843642111E0002A09D00D4A488010
:10319000904202D90722D24300E006220A71ECE7EE
:1031A00004228A560849101848430849FDF7B6F822
:1031B00000B201461D313A2900D8002008BD0000A8
:1031C000681E0020F8FF0000C14500001027000025
:1031D000F0B587B0062201A94620FFF777FF2948FE
:1031E00000250078284F810040185521C900274C40
:1031F0004618690001A8435C6A4653700818407875
:103200001070108801220146D2037043511AFDF755
:1032100085F881B2002001E0401CC0B24200BA5AD9
:103220008A4201D9A128F7D3002801D0A12801D9C9
:10323000FE2001E02838C0B261196D1CEDB2887320
:10324000032DD6D310220F210E20A25661562056F0
:10325000FEF798F8207510220F210E20A256615615
:103260002056FEF796F860750E200F212056615605
:1032700040181021615640180321FDF74FF8A07542
:1032800007B0F0BDE806002082660008681E002036
:1032900030B591B005460024142201A94E20FFF755
:1032A00015FF01A962008B5C684643705018437893
:1032B000684603700088641C8300C0184009A85247
:1032C0000A2CEFDB11B030BD08B500216846017053
:1032D000012269464520FFF7F9FE68460178C809D2
:1032E0004906C90F002801D0432008BD002901D09C
:1032F000442008BD492008BD10B50446010A4120FC
:10330000FFF7F6FEE1B24220FFF7F2FE10BD00002B
:1033100038B50DA109680091694688700024032121
:103320006846FDF7EDFF6946C870FFF717FE6D466A
:10333000285DFFF7E3FDFFF757FE641CE4B2042CA1
:10334000F6D3FFF733FE38BD3440000010B507490F
:10335000782208781043FB22104040084000FD22EC
:1033600010400870FFF7D4FF10BD0000E9060020F0
:1033700010B586B018216846FCF7C4FF0120019003
:103380000390029000214020084C0491009069466F
:103390002046FFF7B5F88020009069462046FFF7E9
:1033A000AFF800F005F806B010BD000000040050B2
:1033B00010B50D4C002280212046FEF76AFF022046
:1033C00000F044F9012240212046FEF762FF01206F
:1033D00000F03CF9012280212046FEF75AFF02202E
:1033E00000F034F910BD000000040050F8B5204C86
:1033F000204E25468035FFF7EBFE00F0FBFAFFF785
:1034000063FF6071FFF7B2FB00F03EF8FEF7A8FA29
:103410006079492814D0FFF79FFE288002F0FAFB5C
:103420007168401A00D54042114F4037388502F08C
:10343000F1FB70600020398D285EFFF77DFC01E014
:10344000002028803078002804D00D490AA009689F
:103450000860F8BDFEF792FA01200A49307003C9EE
:10346000FDF7D2FBA070FA2002F0FDFAC3E70000DE
:10347000681E0020040000204F76657272756E0091
:10348000C467000830070020F0B5514B51481A4678
:103490009C7840321E27D75F0188022C05D24E4D02
:1034A000AF4202DD2025294301E02025A943484DF4
:1034B000018040351A21695E622C8C4606D9474945
:1034C0008C4503DA01881024214302E0018810248E
:1034D000A14301803E4820254679044620464030DD
:1034E000455F838C00213E48A46F432E11D03A4E95
:1034F0003236B54257DC364D4170817180356E5E93
:10350000C825EE4229DA45790A2D21D26D1C457174
:1035100024E04171817086790A2E02D2761C867170
:1035200003E01026C170B34393842C4EB44503DAF4
:103530002A4B463B9D4209DB43785B1CDBB2437060
:10354000032B1FD94170012303711BE0417019E067
:1035500020250171AB43938400E041711E4B5B4217
:10356000FB18322B03D91F4B1B789B0709D5837897
:103570005B1CDBB28370032B04D981700123C37001
:1035800013E08170C378012B0FD00379012B09D18F
:103590000F4B154E5D6FAE19B44211D21248404226
:1035A00020189867F0BD8170D0E7104D084BAC42F1
:1035B00001D96842F4E79967C170908C102103E04B
:1035C0009D670171908C202108439084F0BD00001C
:1035D000681E00208C000020160D00009A100000CC
:1035E0008E000020EA060020806FE3FF40480E00B6
:1035F00030B587B018216846FCF784FE124D284686
:10360000FEF746FF0220FEF7D7FF022000240090BD
:10361000694601942846FEF773FF012104200191B9
:10362000029100900394049469462846FEF768FFCF
:10363000012204212846FEF72CFEFF20F530FFF77B
:1036400083F907B030BD0000000400501421484346
:103650000004000C01D0401EFAE7704710B58C2121
:103660000648FCF74FFE0649002008800549421E27
:103670000880024980314A80087110BD681E002010
:10368000EA0600208C00002010B501F0ADFD02F02C
:10369000C7FA01F0B5FD10BD10B528480221026837
:1036A000D208D2000A43026001684907490F022983
:1036B000FAD1234801680122120411430160016814
:1036C0008903C90FFBD01E4940310A6A01231A43FE
:1036D0000A620A6A9207D20FFBD01A49C2681A4BD3
:1036E0001A401143C16001680122120611430160B2
:1036F000C16812011143C16001688901C90FFBD083
:1037000081680F2212029143816082680221D208EF
:10371000D2000A4382603822816811401029FBD10F
:1037200081680722120391438160084C2046FEF70E
:103730006BFF2046FEF7DCFF10BD000000200240BA
:1037400000100240031000208C80FF1F0090D00367
:1037500070B51F4DA968382001401E481E4C08292D
:103760000DD0430010291BD0182913D0202914D0C4
:10377000286801218004400F8140184624E0206021
:10378000A8683C21800908401449085C2168C140B0
:10379000216070BD7D200002F1E70120C003EEE74B
:1037A000E9688A07E968920F4906490F491C032A0C
:1037B00000D01846FCF7A8FD0146E8684004400E1A
:1037C0004843E968490F491CFCF79EFDD7E7000014
:1037D0000010024000127A0014000020006500086A
:1037E0007047000009480169C907C90F0CD00121C1
:1037F000C943016101684908490001600448012288
:103800000188D2031143018070470000000400408A
:103810001000002010B586B014216846FCF772FD38
:1038200012480221C26B0A43C263C06B114C0840AC
:1038300005903F206946088000210D4801910391C1
:10384000029069462046FEF759FFE06801210843CF
:10385000E06020688843206007480168090A09027F
:1038600001600649A013086006B010BD00100240B8
:103870001F4E00000004004010E400E000E100E002
:1038800010B50548C1698906C90F04D0406AC1B2A4
:1038900002A001F0E9FC10BD0038014025630000E2
:1038A00010B54B20C001FFF7F1F81CA002F062FC3C
:1038B0001F48FEF76FFF0A2002F0D5F8E120400212
:1038C000FFF7E4F81E2002F0CEF81AA002F052FC36
:1038D0001E2002F0C8F81BA002F04CFC1E2002F0D3
:1038E000C2F81BA002F046FC1E2002F0BCF81BA090
:1038F00002F040FC1E2002F0B6F81CA002F03AFCD8
:103900001E2002F0B0F81CA002F034FC1E2002F0D1
:10391000AAF81CA002F02EFC10BD000041542B425E
:103920004155443D3131353230302C4E00000000DD
:103930000044004041542B4E414D453D424D532DD6
:103940003031000041542B4D4F44453D31000000C3
:1039500041542B41494E543D3332300041542B43A6
:10396000494E543D362C31320000000041542B4169
:103970005553543D3130000041542B524F4C453D7E
:103980005300000041542B524F4C453DA3BF000053
:1039900070B51348C1698906C90F17D0406AC2B211
:1039A000104801880B0411D40F4B00245C621C6882
:1039B00001252C431C608B049B0C0C4C491C89B2C8
:1039C000E2540180C72901D90021018002F022F9C7
:1039D0007D21C900FCF798FC0549086070BD000016
:1039E0000044004010000020000400403417002074
:1039F00000000020F0B5002691B01F481F4C029631
:103A00000590374635466421206801F0EBFC00281C
:103A100005D106A8FFF73CFC206801F091FC18488E
:103A200006AB044640347200995A7A00121851834A
:103A3000A94201D90D462677518B059A914200D2B1
:103A40000591029A7F1C8918761C89B2F6B2FFB2E2
:103A500002910A2EE7D32186084665830599E18302
:103A60000599691A6184002F03D03946FCF74CFC94
:103A7000208411B0F0BD0000881300000C0000206D
:103A8000681E002030B47446641E2578641CAB4266
:103A900000D21D46635D5B00E31830BC1847000090
:103AA0004900CA020243100000D004204A0D01D090
:103AB00001221043044A490D914201D102210843D9
:103AC000012800D105207047FF070000002805DB12
:103AD000C106C90E012088400149086070470000F6
:103AE00000E100E08307FF22DB0E9A408907090E00
:103AF0009940002808DB830809489B001B181868B8
:103B000090430843186070470007000F0838830887
:103B100004489B001B18D86990430843D86170473C
:103B200000E400E000ED00E0F8B504464F1EC800D8
:103B30000838211815461E46086849683A46062383
:103B40009A4310D02A463346FDF782F83A46D2000F
:103B5000083AA3181A687F1E5B68FCF701FE06226C
:103B60003B469343EED1022F23D0042F11D0062FD2
:103B70002FD12A463346FDF76BF8E36AA26AFCF7B9
:103B8000EFFD2A463346FDF763F8636A226AFCF7C5
:103B9000E7FD2A463346FDF75BF8E369A269FCF7C7
:103BA000DFFD2A463346FDF753F863692269FCF7C7
:103BB000D7FD2A463346FDF74BF8E368A268FCF7C9
:103BC000CFFD2A463346FDF743F863682268FCF7C9
:103BD000C7FDF8BD002210B5134610460149FCF799
:103BE000EFFD10BD0000F03F10B50122FDF70AFA0D
:103BF00010BD10B5FCF7B4FD10BD002210B5134682
:103C000010461146FCF7DCFD10BD000010B5072181
:103C1000024A00200907FDF7F5F910BD0103000075
:103C2000034A10B500201107FDF7ECF910BD0000A4
:103C300001FDFFFF002806D002060D49120E03D039
:103C4000C0B2085C401C70470204120E04D000048D
:103C5000000E085C093070470202120E04D0000208
:103C6000000E085C11307047000E085C1930704778
:103C700060650008FEB5044609A8E0C8194620465C
:103C80001430089BA061226261626061E56218469F
:103C90002A462321A36201F020FBE16AA06A0F4BB0
:103CA0004218121F616A206A01F082FA2146E0611F
:103CB00020318E754E750020E763A0632764206372
:103CC0000875206760670090019023462046044AEB
:103CD0001946443002F034F80020FEBDAD5900080A
:103CE000695B000810B5143001F0EEFA10BD70B534
:103CF0000546FCF75BFA296F0446002901D02846E7
:103D000088472046FCF756FA70BD0000F0B54E001B
:103D1000864BCF0F760887B005460C469E422ED3C1
:103D20008348864211D33003000B284304D0284631
:103D3000FFF75AFF07B0F0BD002F03D00020014667
:103D400007B0F0BD284607B0F0BD7A4A284602F019
:103D50008BFA06D20220FDF7A4F8FFF757FF07B051
:103D6000F0BD754A754B2846214602F04BFA06D243
:103D70000220FDF796F8FFF753FF07B0F0BD70483B
:103D800086424AD930466F49E20FD600884215D2A2
:103D90006D48784480194368026828462146FCF73C
:103DA000ECFC0290694803917844811908684968DD
:103DB00000900120C01B0191C61B25E0644A654BA1
:103DC00028462146FCF744FF634A7A4493191A684F
:103DD0005B68FCF7C5FCFDF7B3F80646FDF707F98D
:103DE00007465E4A5E4B0091FCF732FF2A462346A7
:103DF000FCF7CEFC039102905A4A5B4B384600997F
:103E0000FCF726FF019100900B46009A0399029857
:103E1000FCF7B3FC05460C4617E05448864213D223
:103E2000534A544B28462146FCF79AFC524E002236
:103E3000334602F019FA07D20022334628462146BB
:103E4000FCF78EFC07B0F0BD00262A46234610463C
:103E50001946FCF7FDFE0746024648480B4604910A
:103E600005217844FFF760FE3A46049BFCF7F0FE1C
:103E70002A462346FCF78CFC069101218907074658
:103E8000002E23D002460020069BFCF776FC05910D
:103E900004903A4628462146069BFCF7D9FE059B2E
:103EA000049AFCF78DFC019B009AFCF771FC039BC4
:103EB000029AFCF762FC00222F4BFCF769FC304AA7
:103EC00096421EDB3205891807B0F0BD0B46002272
:103ED0000699FCF752FC064600913A4628462146D0
:103EE000069BFCF7B5FE3246009BFCF769FC2A46B0
:103EF0002346FCF742FC00221F4BFCF749FC07B0AD
:103F0000F0BD7D233205DB05D21889181D4AFDF767
:103F100079F80D460446FFF7C3FD042801D1FFF7E9
:103F20007FFE2046294607B0F0BD0000422E8640A5
:103F30000000F07FEF39FAFE51302DD5104987C0CF
:103F4000422ED63FB2A2F03FCA2A0000C42A000087
:103F5000FE822B654715F73F822A00000000E0FE35
:103F6000422EE63F763C7935EF39EA3D0000303E9F
:103F70009C7500883CE4377E0000F03F1A2A000060
:103F800003FCFFFF18FCFFFFF8B54A002B4B520D56
:103F9000D6182B4A0C460546142E2BDA002E12DAC0
:103FA000284BFCF7DDFB0022134602F05DF940D2FE
:103FB000002C02DB002425463BE06000400828433B
:103FC00037D0214C14E0214F0B46F7403B402B43A8
:103FD00031D01C4BFCF7C4FB0022134602F044F91D
:103FE00027D2002C03DA01200005F0400419BC435D
:103FF00000251EE0332E1EDC33460027143BFF4312
:10400000DF40384217D00F4BFCF7C2FB00221346AB
:1040100002F02AF90DD2002C0ADA142E0CD034202A
:10402000811B012088404019A84200D2641C05462B
:10403000BD4321462846F8BD641CF9E701FCFFFF9B
:104040009C7500883CE4377E0000F0BFFFFF0F0046
:1040500070B5214A2023D35E204D00245B19204DEA
:10406000AB4237D21A23D35E1E4DAB4232DA1E2347
:104070001A4DD35EED43AB422CDD1346403B5B79DA
:104080005A24432B17D1154640350023EB5E1D46BD
:104090006435C82D0FD9144D5B196D00AB4201D8A2
:1040A000012300E0022303701E20105E0F4B984294
:1040B00003DAD08B09E00023F5E71A20105E0C4BE1
:1040C000984201DD508B00E0108C088081B209A07D
:1040D00001F0CAF8204670BDA81E002041F5FFFF80
:1040E000D5060000701700009F280000480D000052
:1040F000CC100000534F43496E697462617365567A
:104100006F6C3D25640D0A00064D074C287880072A
:1041100002D4FEF752F9F9E76179A078FEF72AF99F
:10412000F4E700008C000020681E00201FB5FFF798
:104130005FFAFEF767F9FEF717FCFEF737FCFFF7AB
:10414000AFFBFFF715F9FFF789FAFEF71BFEFEF745
:10415000F7F8FFF75FFBFDF723F93548002231A19F
:10416000806801F0D9F81620FF2532491424013562
:10417000009102900023304A019503942FA1324808
:1041800001F05CFC002802D12F4801F0B7FC172099
:104190000121029089022D4A2B48009201910023AF
:1041A00003942B4A2BA1783001F048FC002803D15E
:1041B0002548783001F0A2FC182001210290C902A4
:1041C000284A1C480092019100230394264A27A103
:1041D000F03801F033FC002803D11648F03801F024
:1041E0008DFC26480088C00412D51920029024496D
:1041F000104800910023234A0195039422A17838A6
:1042000001F01CFC002803D10A48783801F076FC44
:10421000214D224C2560FEF7F3FCC82001F023FC61
:10422000F8E7000053485F6D757465780000000082
:104230000400002034090020094100086C65643541
:10424000646973706C61790054070020340A00209F
:10425000936100087573617274326D6F6462757377
:1042600000000000340E0020ED330008534F43637C
:10427000616C63756C617465000000008C00002047
:1042800034160020F112000842616C616E636543D0
:104290006F6E74726F6C0000AAAA000000300040BC
:1042A00010B500F09BFEFFF741FF10BDF0B532499D
:1042B0000020085E99B0002800DA404286B22F4DF7
:1042C00001202870032068702D4841790279090285
:1042D00011434CBAAC70C17882780802104347BAD7
:1042E00064216846FCF70EF826486421006801F056
:1042F00079F800283ED1402F01D1342C07D0E2B20A
:10430000F8B26946FEF7E2FE002069461EE033225D
:1043100040206946FEF7DAFE0020611E6A46135C03
:104320002F18401CC0B2FB708842F8DB1348310ADA
:10433000203041748674104880388078291988703C
:1043400006E00A5C2B18401CDA70C0B2A042F8D319
:104350000C48006800F0F4FFE01CC1B20748FCF70D
:10436000E9FF2919020ACA700871641DE1B2034805
:1043700000F00AF819B0F0BDE81E0020FC1700207C
:10438000341700200C00002070B50D4606460024AE
:1043900004E0305D01F0DCFE641CE4B2AC42F8D312
:1043A00070BD000070B5104D288801041AD5840432
:1043B000A40CA01EC1B20D48FCF7BCFF0B490A19A2
:1043C0001E3A537F147F1A02224352BA904207D1F9
:1043D0000878012804D14878032801D1FFF766FF47
:1043E0000020288070BD000010000020341700203D
:1043F000F0B51FB496B084460C460246199D189835
:104400000390490068006300490840080193002AAE
:1044100001D0012600E000269E19FE4BF6185B1025
:104420009E422BD36E00039F0296002F00D00127DF
:10443000F719F84EF84BBE199E421FD3039E034650
:10444000F64F334309D03B469C4201D1002A04D0A9
:10445000019B002A05D0012604E0002039461BB04C
:10446000F0BD00269E19EE4B9E4207D8039F029E88
:10447000002F00D00127F6199E4207D92B4660462F
:104480002146189AFFF7B5FB1BB0F0BD0023002CA6
:1044900029DAE44EB04226DAE34EB04201DB0223D1
:1044A00021E0DE4EB0421EDBE04E070DBE19142E99
:1044B00009DD3427BF1B039EFE400196BE40039FCB
:1044C000BE420BD00FE0039F002F0CD11427BF1B5F
:1044D0000646FE400196BE40864204D1019BDE079F
:1044E000F60F02239B1B0E46164318D1002D16DA39
:1044F000002C03D0022B01D0012B06D00220FCF7A8
:10450000D0FCFFF767FB1BB0F0BD0220FCF7C9FC35
:10451000FFF760FB0122D20751401BB0F0BD039EA4
:10452000002E61D1BF4EB04220D1C148844201D19A
:10453000002A08D0B948814209DB002D10DB189809
:1045400029461BB0F0BD0020B4491BB0F0BD002DC2
:1045500006DA01222946D207189851401BB0F0BD57
:10456000B4497944086849681BB0F0BDAB4FB84204
:1045700025D1002D1FDA002904D0B14212D1002A22
:1045800009D018E0002A72D1A649E20F0020D20714
:1045900011431BB0F0BD0020E20F0146D2071143CA
:1045A0001BB0F0BDB14206DA234600203946FCF7C5
:1045B00007F91BB0F0BD104621461BB0F0BDB1425B
:1045C00012DA0126B607B54203D123461046194632
:1045D000FEE3994EB54207D1261E05DB1046314653
:1045E00001F080FD1BB0F0BD67007F081646002A71
:1045F00040D100290AD08B4A914229D1002C0EDDEE
:10460000002D1CDB002011461BB0F0BD022B16D084
:10461000002C14D0012B12D1002C14DB0FE0002C45
:1046200028DA002D09DB012B03D000207D491BB0C7
:10463000F0BD002081491BB0F0BD012B03D000204C
:1046400001461BB0F0BD00200121C9071BB0F0BD21
:10465000724A91420ED1002C01DA002B17D0022BA6
:1046600006D00020C043FCF7C2FC1BB0F0BD90E2B6
:104670000120F8E7E217521C94461A4307D00022A3
:104680000892664C62465B1E1A4307D009E001207F
:10469000FCF707FCFFF7B1FA1BB0F0BD0022644C39
:1046A0000892674A90427DDD664B674A98421FDD5B
:1046B000914202DC002D05DB4DE05848814217DBBA
:1046C000002D48DD0220FCF7ECFBFFF79FFA0546C2
:1046D0000E460022534B21460898FCF7B9FA0846CB
:1046E00071004908C00FC007014328461BB0F0BD48
:1046F000914215DA002D2EDA0220FCF7D2FBFFF7EB
:1047000085FA05460E460022464B21460898FCF7DE
:104710009FFA72005208C80FC0070243114617E003
:104720003E4B994223DD002D15DD0220FCF7B9FB3D
:10473000FFF76CFA05460E4600223A4B21460898D0
:10474000FCF786FA084671004908C00FC00701430C
:1047500028461BB0F0BD0220FCF7A3FBFFF760FA70
:1047600049004908E20FD20711431BB0F0BD0022F7
:1047700030463946FCF701F8012205460E46D24381
:10478000FCF740FC314A324BFCF702F82A4633462C
:10479000FCF75EFA0022284BFBF7FAFF07462A4691
:1047A000334600E064E0039110461946FCF750FAE6
:1047B0003A46039BFCF74CFA07460322099152073D
:1047C000244B28463146FCF743FA07910C90224AC5
:1047D000204B38460999FCF73BFA074601911F4ADE
:1047E0001F4B28463146FCF733FA3A46019BFBF74C
:1047F000C4FF07460B460246099107990C98FBF740
:10480000AFFF00250E462846079B0C9AFBF7B5FF25
:104810003A4627E0FFFF1F00FFFF0F000000F03FB8
:104820000000E0FF0000F07F0000404301FCFFFFBC
:104830000000F0BFCA2300000000E03F0000F0FFCE
:104840000000E0410000F043FFFFEF3F5555555594
:104850005555D53F4715F73FFE822B6544DF5DF880
:104860000BAE543E099BFBF793FF02460B4652E109
:10487000012500202D05A94207DA352230463946A8
:10488000FCF7C0FB06463420C0430A151218FE4848
:10489000101803900803FD49000B01430F46FC4923
:1048A000884201DC002003E0FA49884202DA012054
:1048B000119005E0002011900398401C7F1B03908D
:1048C00011980597C200F4480F9278448018436805
:1048D0000268394630460D930292FBF74EFF07916E
:1048E0000C9030460D9B029A0599FBF739FF024662
:1048F0000B460020E549FBF763FF09910490079BF5
:104900000C9AFCF7A5F9129000201090E3480D4690
:10491000784400680E9001217810490708431199E6
:104920000D9B890440180121C90447183946029A91
:104930000E98FBF722FF3246059BFBF729FF024644
:104940000B4629461098FCF783F9064602913B4630
:1049500029460E9A1098FCF77BF9079B0C9AFBF7F7
:1049600017FF3246029BFBF708FF099B049AFCF7EE
:104970006FF90591129A0A902B4610461946FCF7DA
:1049800067F906460246C6480F460B46062178449C
:10499000FFF7CAF832463B4600910490104619468C
:1049A000FCF756F9009B049AFCF752F906460F46AD
:1049B0002B461946129A1098FBF7D2FE059B0A9ACD
:1049C000FCF746F932463B46FBF7CAFE109A0791C0
:1049D00004902B4610461946FCF73AF9B14E0022D6
:1049E000334609910290FBF7BBFE079B049AFBF745
:1049F000B7FE00200746024633460091FBF7BDFE96
:104A0000099B029AFBF7B9FE079B049AFBF7C0FECD
:104A100006460D913A462946009B1098FCF718F976
:104A200007910C902B463046129A0D99FCF710F91D
:104A300005460E463A46009B05990A98FCF708F988
:104A400033462A46FBF78CFE02460B460746099181
:104A500007990C98FBF784FE00250E462846079B15
:104A60000C9AFBF78AFE3A46099BFBF791FE074634
:104A70000722099152078C4B31462846FCF7E8F88B
:104A800007910090894A884B38460999FCF7E0F86D
:104A900007460191864A874B31462846FCF7D8F8ED
:104AA0003A46019BFBF75CFE834B7B440F9A9B18B5
:104AB0001A685B68FBF754FE029009910398FCF7B3
:104AC00096FA05910490099B029A07990098FBF7C2
:104AD00047FE7A4B7B440F9A9B181A685B6817460F
:104AE0000393FBF73DFE059B049AFBF739FE0E4648
:104AF0002846059B049AFBF740FE3A46039BFBF7CA
:104B00003CFE079B009AFBF738FE099B029AFBF7D5
:104B10003FFE02460B46199900200C900F4618984C
:104B2000FCF796F8029104903B460C9A1999189854
:104B3000FBF723FE2A463346FCF78AF8029B049AC9
:104B4000FBF70EFE09910E902A46334639460C9823
:104B5000FCF77EF806460F46099B0E9AFBF700FE0F
:104B6000574A0D46914220DB5242AA18024310D107
:104B700032463B46FBF701FE04900391514A524BEB
:104B800009990E98FBF7ECFD039B049A01F06CFB6E
:104B90001ED20220FCF785F9FFF738F849004908D2
:104BA000E20FD20711431BB0F0BD6A00474B520819
:104BB0009A420DD3464AAA18024300D0CBE53246AA
:104BC0003B46FBF7DAFD099B0E9A01F04DFBF5D948
:104BD0006800002340082C490393020D3D4B5218F6
:104BE000984223DD01200005521CD040421950009C
:104BF000400D401838497944096813468C463749B6
:104C0000C1408B4312030121120B090551181422D4
:104C1000101AC1400391002D01DA48420390624608
:104C200030463946FBF7A9FD06460F4632463B465D
:104C300009990E98FBF794FD00252A46284B284633
:104C40000591FCF705F807910C90264A264B28465B
:104C50000599FBF7FDFF0091029032463B4628463E
:104C60000599FBF78AFD099B0E9AFBF791FD1F4AF8
:104C70001F4BFBF7EDFF009B029AFBF771FD074608
:104C80000B460246099135E001FCFFFF0000F03FB2
:104C90008E9803007AB60B00DA1F00001C2000007B
:104CA000461F00000000084009C7EE3FFD033ADC44
:104CB000F5015B14E02F3EBE1A1E0000E01D00004F
:104CC00000009040FE822B654715973C00CC904039
:104CD00000346F3F0000E03F361D0000FFFF0F0073
:104CE000432EE63F396CA80C615C20BEEF39FAFE1A
:104CF000422EE63F07990C98FBF732FD05460E461B
:104D0000079B0C9AFBF739FD3A46099BFBF740FDE0
:104D100009912A4633460E9010461946FBF798FF34
:104D2000074602462F480B46059105217844FEF7B9
:104D3000FBFE3A46059BFBF78BFF2A463346FBF703
:104D400027FD0746019128463146099B0E9AFBF73D
:104D50007FFF099B0E9AFBF703FD012304910C9042
:104D600000229B0738460199FBF707FD05910E903D
:104D70003A4628463146019BFBF76AFF059B0E9A8F
:104D8000FBF71EFD049B0C9AFBF7F7FC2A46334603
:104D9000FBF7F3FC0022144BFBF7FAFC06460398E2
:104DA0000D46000541190915002912DC3046294637
:104DB000039AFCF727F9FEF773FE042801D1FEF7EA
:104DC0002FFF30462946039AFCF71CF9064601E0FE
:104DD00004E029180B46324621460898FBF738FFB5
:104DE0001BB0F0BDD81B00000000F03FFFB589B03C
:104DF0000446149E1298139F01900097700601D5E7
:104E00004A4801E0494811380890F00601D5760873
:104E10007600F00701D0302000E02020079000202D
:104E20000690B0070DD5002A03DA2D2052420690D5
:104E300007E0700701D52B2002E0300701D52020C4
:104E400006900025002A04D1302069460872012509
:104E50000CE00C980A2815D01107090F12090898C0
:104E6000415C02A841556D1C002AF2D1BD4200DD13
:104E70002F460198112132460A40C01B2021002AEA
:104E800006D015E010460A21FBF73EFA0246E6E797
:104E9000069A002A08D0002806DD401E04E00A9A7F
:104EA000944200D22170641C0246401E002AF6DCA7
:104EB000069A002A06D00A9A944201D2069A2270D3
:104EC000401E641CF20606D509E00A9A944201D2FB
:104ED000079A2270641C0246401E002AF5DC30222C
:104EE0003B467F1EAB420CDD0A9B9C4200D22270E7
:104EF000641CF5E70A9B9C4201D2535D2370641C3D
:104F000000E002AA2B466D1E002B08DD009B002B43
:104F1000F0D104E00A9A944200D22170641C024647
:104F2000401E002AF6DC20460DB0F0BD7166000878
:104F30004A00064B520D9A4205D1090301D10028BF
:104F400001D001207047002070470000FF070000DB
:104F50000A49094ACA6200208862D2008A60084A67
:104F6000CA61FF228861D2050A60064A4A62086265
:104F7000D0004860704700000000F8FF20070020C4
:104F80000000F07F0000F0FF1FB5094C1423012141
:104F9000490203930A22601A6B4607C30023054A9D
:104FA00005A1204600F04AFD204600F0A7FD1FBDE8
:104FB000601A0020A14200086D61696E00000000C7
:104FC00070B5044C044D02E020688047241DAC42BB
:104FD000FAD370BD3C6900084069000870B5044C04
:104FE000044D02E020688047241DAC42FAD370BD16
:104FF000406900084469000810B5FBF7D7F8034A78
:105000005188491C5180FBF7D5F810BD6000002085
:1050100010B5FBF7CBF80A4C6188491E09B26180D4
:10502000002909DC00216180FBF7C4F860680028D2
:1050300001D000F037FB10BDFBF7BCF810BD00003D
:105040006000002010B5FEF727FBFEF781FB0D483E
:105050007D21C9000068FBF757F90B49401E8842C3
:105060000CD80A4948610A480722C3691B021B0A77
:105070004C042343C361002088610A61FFF7A0FF4D
:1050800010BD000014000020FFFFFF0000E000E062
:1050900004ED00E0F8B5064600240D2700F0D0FB33
:1050A000054609E0305D0A2802D1384601F03EF895
:1050B000305D01F03BF8641CAC42F3D3F8BD000056
:1050C0000446C16912A000F0CFF815A0A16900F054
:1050D000CBF817A0616900F0C7F819A0216900F0AA
:1050E000C3F81BA0E16800F0BFF81DA0A16800F0A4
:1050F000BBF81FA0616800F0B7F821A0216800F09C
:10510000B3F82348016823A000F0AEF8FEE70000E2
:105110007073723A203078253038780A0000000029
:105120002070633A203078253038780A000000007B
:10513000206C723A203078253038780A0000000060
:105140007231323A203078253038780A0000000079
:105150007230333A203078253038780A0000000069
:105160007230323A203078253038780A000000005A
:105170007230313A203078253038780A000000004B
:105180007230303A203078253038780A000000003C
:105190006400002068617264206661756C74206F21
:1051A0006E207468726561643A2025730A000000FD
:1051B000F0B50546121DD008C0004038094E024621
:1051C0000024A700641CD651102CFAD311620021D0
:1051D00051629162D16230322AC201210906C16353
:1051E000F0BD0000EFBEADDE10B5FAF7DFFF034AF9
:1051F0001178491C1170FAF7DDFF10BD1C0000206A
:1052000010B5FAF7D3FF034A1178491E1170FAF767
:10521000D1FF10BD1C000020F8B5064614460D460F
:10522000084600F081FC2F461437002C15D0012CC5
:1052300017D1203534680CE0212120466A7D095DB4
:1052400014388A4204D23946143000F02DF802E0B6
:105250002468B442F0D1B44203D13946304600F05C
:1052600023F80020F8BD00000FB410B503AB7F2178
:105270000548029A00F0D2FD0348FFF70BFF10BC6F
:1052800008BC04B018470000D01B00200268516021
:1052900002680A60016048607047026851600268F5
:1052A0000A600160486070474268116042684A6065
:1052B00041600860704706C808384A6006C8083868
:1052C000116040600060704706C808384A6006C830
:1052D0000838116040600060704730B50346C9B2BD
:1052E000042A16D3840714D10D020D432C042C4339
:1052F00005E01C605C609C60103ADC601033102A92
:10530000F7D201E010C3121F042AFBD201E019708A
:105310005B1C521EFBD230BD70B515460A460446D2
:10532000032100F0DFF820461430A0616061012005
:10533000A0830020FF212062A177E077657270BD15
:1053400070B5044600F0B4FB0646FAF72FFF054699
:10535000206AB04207D00024E44328463463FAF7B9
:1053600029FF204670BDE17F491E0906090EE1773D
:105370002CD13521A27F095C8A4204D022461E32FC
:10538000022100F0AEFA2146022660691431F6438C
:10539000884211D0143835212062095CA177E17F61
:1053A000FF2918D2491CE17700F063FB2846FAF781
:1053B00001FF00F077F90CE0A08B094988420AD27E
:1053C000401CA08300202062FF20A0772846FAF727
:1053D000F1FE002070BD2846FAF7ECFE304670BDA5
:1053E000FFFF0000F3B581B0054600F061FB044605
:1053F000FAF7DCFE0646002020630227286AFF43F6
:10540000A04205D1E87FFF280CD2401CE87739E0A4
:10541000A98B00290BD0491EA9832C622034607D02
:10542000A877EFE73046FAF7C5FE3846FEBD029989
:1054300000292CD035210A5D095C8A4204D222461B
:105440003532022100F04DFA28466A7A214614309E
:10545000FFF7E2FE0298002809DD2046443002AA48
:105460000021054600F034FC284600F07FFC304661
:10547000FAF7A0FE00F016F9206B0028D6D1FAF753
:1054800095FE06463046FAF795FE0020FEBD012542
:10549000ED4330462563FAF78DFE2846FEBD10B574
:1054A000044600202072FAF781FE0C3406CC083C3A
:1054B0004A6006CC083C116064602460FAF77AFE0A
:1054C00010BD0000064A00210B01D35C834202D1CB
:1054D000080180187047491C0429F5DB002070473B
:1054E00020000020F8B5044617460E460846FFF790
:1054F000E9FF0546FFF780FD291D686800E00068A8
:105500008842FCD1FFF784FD8020064326720822E2
:105510003946204600F09CF9FAF748FE69680C34D9
:105520004C60696821606C602D1D6560FAF742FE71
:10553000F8BD007A000601D50120704700207047B1
:10554000FEB516461F4604460D46FFF7F1FC00283F
:1055500005D130463946FFF7EBFC002804D04E4910
:10556000886AC96A03B0F0BD6800400801907800FD
:105570004008009048483946C3698269304600F0C7
:105580000FFE07D044483946436A026A304600F0AD
:1055900007FE16D1414D00222B462046019900F00E
:1055A000FFFD15D000222B462046019900F05CFE3D
:1055B00011D2002213463046394600F055FE11D272
:1055C00013E0002213463046009900F0E9FD10D1A7
:1055D00000203249C6E7002213463046394600F023
:1055E00043FE02D200200146BCE72B498869C96905
:1055F000B8E70022294B3046009900F0D1FD10D1C8
:10560000002213463046394600F02EFE02D22046D4
:105610002946A7E722462B4600202049FBF7D0F871
:10562000A0E7012300229B073046394600F0B8FD71
:1056300006D122462B4610461946FBF709FB91E797
:105640000022174B3046394600F0AAFD0BD100224C
:1056500013462046294600F007FE04D82046294676
:1056600000F040FD7EE7002213462046294600F068
:10567000C9FD09D230463946FEF786FC32463B4624
:1056800000F0C0FD00D26AE732463B46204629467C
:10569000FEF7AEFE66E70000200700200000F03FA6
:1056A0000000E03F70B5FAF781FD124C05466088B6
:1056B000002815D1A068FEF7BDFA401E0E4AC100B1
:1056C00051586268143991420AD020700B486160C9
:1056D0000078002808D010461C301C31FAF76DFD08
:1056E0002846FAF767FD70BD10461C301C31FAF7EA
:1056F00064FDF5E760000020501C00201C00002025
:1057000010B50446FAF752FD024620462030017DCE
:1057100009090901491C0175407D0A49C000411869
:1057200020464B68143018604B68A3614860616183
:105730000548A16B8368194381601046FAF73AFD6A
:1057400010BD0000501C00206000002010B5044671
:10575000FAF72CFD214614310CC9083953600CC9E5
:1057600008391A60496009603521095DCA00064997
:105770008B5851188B4204D10449A36B8A689A4311
:105780008A60FAF717FD10BD501C00206000002051
:1057900008B509A0FFF768FD0AA0FFF765FD12A094
:1057A000009005230122032112A0FFF75DFD19A03F
:1057B000FFF75AFD08BD00000A205C207C202F0A5C
:1057C000000000002D205254202D202020202054A5
:1057D0006872656164204F7065726174696E6720DC
:1057E00053797374656D0A004A756C203133203229
:1057F00030323300202F207C205C202020202025E8
:10580000642E25642E2564206275696C64202573DE
:105810000A0000002032303036202D203230323065
:1058200020436F707972696768742062792072749E
:105830002D746872656164207465616D0A000000F2
:10584000014600E0491C0A78002AFBD1081A70477B
:1058500010B5002A08D003460C781C70491C5B1C4C
:10586000002C05D0521EF7D110BD19705B1C00E052
:105870000021521EF9D110BD10B5002209480A4C72
:1058800042801146CB001B195B60491C1B6020291C
:10589000F8DB1F2101704260826002480C304060DA
:1058A000006010BD60000020501C002010B5074CA7
:1058B000A068FEF7BFF9401E0549C000085814381B
:1058C00060601C30FAF7B1FC10BD000060000020E1
:1058D000501C0020014840600060704778000020A4
:1058E0007047F8B517460446002921D0012922D077
:1058F000022924D1FAF75AFC254620350090287D4C
:1059000001260007000F012807D038786875864007
:10591000A6630098FAF74EFC11E02046FFF716FF49
:105920003878687586402046A663FFF7E9FEF0E701
:1059300000F0E4F8F8BDFFF7FCFD012801D00020DD
:10594000F8BD204600F002F8F8BD000070B505462D
:1059500004462035287D0107090F04291DD00007C2
:1059600002D02046FFF7F2FE2046FEF7C0F920469F
:10597000443000F0D1F9042028752046FFF7D9FD06
:1059800001280CD0FAF712FC0546214614310648CE
:10599000FFF77CFC2846FAF70DFC002070BD20467E
:1059A000FFF77DFDF9E700006C00002070B513489B
:1059B0000468FAF7FBFB05462046FEF798F92046F7
:1059C000FFF7C4FE0421342001552046443000F086
:1059D000A3F92046FFF7ADFD01280AD02146143176
:1059E0000748FFF753FCFFF75DFE2846FAF7E2FB96
:1059F00070BD2046FFF753FDF5E70000640000206E
:105A00006C000020FEE700001FB5084820231F227D
:105A100080216C460FC40023054A06A1783800F0A7
:105A20000DF80248783800F069F81FBD501B0020BF
:105A3000055A00087469646C65000000FFB585B004
:105A40000FADE0CD0C460A4601210598FFF74AFD4F
:105A50000E986A46E1C22146089B079A0598FEF710
:105A600009F909B0F0BD10B500F0BCF800F026F857
:105A700010BD70B504462030007D0007000F0228DD
:105A800002D00020C04370BDFAF790FB05462046C7
:105A90001430FFF710FC2046443000F0A7F92846E8
:105AA000FAF788FB2046FFF72BFE002070BD0000B0
:105AB000014800687047000064000020F1B5FAF763
:105AC00075FB05460C480468204600F02DF820467A
:105AD00044306A460021064600F0FAF8304600F0ED
